{
  "contractName": "PubKey2IPFS",
  "abi": [
    {
      "inputs": [
        {
          "internalType": "address",
          "name": "",
          "type": "address"
        }
      ],
      "name": "ipfsHash",
      "outputs": [
        {
          "internalType": "string",
          "name": "pubKey",
          "type": "string"
        },
        {
          "internalType": "string",
          "name": "ipfsHash",
          "type": "string"
        }
      ],
      "stateMutability": "view",
      "type": "function",
      "constant": true
    },
    {
      "inputs": [
        {
          "internalType": "string",
          "name": "publicKey",
          "type": "string"
        },
        {
          "internalType": "string",
          "name": "ipfs_Hash",
          "type": "string"
        }
      ],
      "name": "set",
      "outputs": [],
      "stateMutability": "nonpayable",
      "type": "function"
    },
    {
      "inputs": [],
      "name": "getIPFS_Hash",
      "outputs": [
        {
          "internalType": "string",
          "name": "",
          "type": "string"
        },
        {
          "internalType": "string",
          "name": "",
          "type": "string"
        }
      ],
      "stateMutability": "view",
      "type": "function",
      "constant": true
    }
  ],
  "bytecode": "0x608060405234801561001057600080fd5b50610897806100206000396000f3fe608060405234801561001057600080fd5b50600436106100415760003560e01c8063990bb13714610046578063ca4bc9eb14610065578063e942b51614610096575b600080fd5b61004e6100b2565b60405161005c929190610647565b60405180910390f35b61007f600480360381019061007a9190610569565b61025d565b60405161008d929190610647565b60405180910390f35b6100b060048036038101906100ab9190610596565b610391565b005b60608060008060003373ffffffffffffffffffffffffffffffffffffffff1673ffffffffffffffffffffffffffffffffffffffff168152602001908152602001600020600001805461010390610764565b80601f016020809104026020016040519081016040528092919081815260200182805461012f90610764565b801561017c5780601f106101515761010080835404028352916020019161017c565b820191906000526020600020905b81548152906001019060200180831161015f57829003601f168201915b5050505050905060008060003373ffffffffffffffffffffffffffffffffffffffff1673ffffffffffffffffffffffffffffffffffffffff16815260200190815260200160002060010180546101d190610764565b80601f01602080910402602001604051908101604052809291908181526020018280546101fd90610764565b801561024a5780601f1061021f5761010080835404028352916020019161024a565b820191906000526020600020905b81548152906001019060200180831161022d57829003601f168201915b5050505050905081819350935050509091565b600060205280600052604060002060009150905080600001805461028090610764565b80601f01602080910402602001604051908101604052809291908181526020018280546102ac90610764565b80156102f95780601f106102ce576101008083540402835291602001916102f9565b820191906000526020600020905b8154815290600101906020018083116102dc57829003601f168201915b50505050509080600101805461030e90610764565b80601f016020809104026020016040519081016040528092919081815260200182805461033a90610764565b80156103875780601f1061035c57610100808354040283529160200191610387565b820191906000526020600020905b81548152906001019060200180831161036a57829003601f168201915b5050505050905082565b816000803373ffffffffffffffffffffffffffffffffffffffff1673ffffffffffffffffffffffffffffffffffffffff16815260200190815260200160002060000190805190602001906103e6929190610441565b50806000803373ffffffffffffffffffffffffffffffffffffffff1673ffffffffffffffffffffffffffffffffffffffff168152602001908152602001600020600101908051906020019061043c929190610441565b505050565b82805461044d90610764565b90600052602060002090601f01602090048101928261046f57600085556104b6565b82601f1061048857805160ff19168380011785556104b6565b828001600101855582156104b6579182015b828111156104b557825182559160200191906001019061049a565b5b5090506104c391906104c7565b5090565b5b808211156104e05760008160009055506001016104c8565b5090565b60006104f76104f2846106a3565b61067e565b9050828152602081018484840111156105135761051261082a565b5b61051e848285610722565b509392505050565b6000813590506105358161084a565b92915050565b600082601f8301126105505761054f610825565b5b81356105608482602086016104e4565b91505092915050565b60006020828403121561057f5761057e610834565b5b600061058d84828501610526565b91505092915050565b600080604083850312156105ad576105ac610834565b5b600083013567ffffffffffffffff8111156105cb576105ca61082f565b5b6105d78582860161053b565b925050602083013567ffffffffffffffff8111156105f8576105f761082f565b5b6106048582860161053b565b9150509250929050565b6000610619826106d4565b61062381856106df565b9350610633818560208601610731565b61063c81610839565b840191505092915050565b60006040820190508181036000830152610661818561060e565b90508181036020830152610675818461060e565b90509392505050565b6000610688610699565b90506106948282610796565b919050565b6000604051905090565b600067ffffffffffffffff8211156106be576106bd6107f6565b5b6106c782610839565b9050602081019050919050565b600081519050919050565b600082825260208201905092915050565b60006106fb82610702565b9050919050565b600073ffffffffffffffffffffffffffffffffffffffff82169050919050565b82818337600083830152505050565b60005b8381101561074f578082015181840152602081019050610734565b8381111561075e576000848401525b50505050565b6000600282049050600182168061077c57607f821691505b602082108114156107905761078f6107c7565b5b50919050565b61079f82610839565b810181811067ffffffffffffffff821117156107be576107bd6107f6565b5b80604052505050565b7f4e487b7100000000000000000000000000000000000000000000000000000000600052602260045260246000fd5b7f4e487b7100000000000000000000000000000000000000000000000000000000600052604160045260246000fd5b600080fd5b600080fd5b600080fd5b600080fd5b6000601f19601f8301169050919050565b610853816106f0565b811461085e57600080fd5b5056fea26469706673582212202379735b480a205ac4538004824c38011d745f73ba00d5992b4157b6aa52d80b64736f6c63430008070033",
  "immutableReferences": {},
  "source": "// SPDX-License-Identifier: MIT\npragma solidity >=0.4.22 <0.9.0;\n\ncontract PubKey2IPFS {\n    \n    struct pubKey_IPFS {\n        string pubKey;\n        string ipfsHash;\n    }\n    \n    //Map Public Key -> IPFS Hash -> For social recovery purpose\n    mapping ( address => pubKey_IPFS) public ipfsHash;\n   \n    //Write public key and hash into the ledger\n    function set(string memory publicKey, string memory ipfs_Hash) public {\n         ipfsHash[msg.sender].pubKey = publicKey;\n         ipfsHash[msg.sender].ipfsHash = ipfs_Hash;\n    }\n\n    \n    //Read Public key and Hash\n            function getIPFS_Hash() public view returns (string memory, string memory) {\n                string memory _publicKey = ipfsHash[msg.sender].pubKey;\n                string memory _ipfsHash = ipfsHash[msg.sender].ipfsHash;\n        return (_publicKey, _ipfsHash);\n    }\n\n}   \n",
  "sourcePath": "/home/nas2020/Documents/canacred/playground/truffle_tool/contracts/PubKey2IPFS.sol",
  "compiler": {
    "name": "solc",
    "version": "0.8.7+commit.e28d00a7.Emscripten.clang"
  },
  "schemaVersion": "3.4.3",
  "updatedAt": "2021-09-24T01:56:47.131Z",
  "networkType": "ethereum",
  "devdoc": {
    "kind": "dev",
    "methods": {},
    "version": 1
  },
  "userdoc": {
    "kind": "user",
    "methods": {},
    "version": 1
  }
}